:100000000C94A8000C946C1C0C94991C0C94D000BB
:100010000C94D0000C94D0000C94D0000C94D00020
:100020000C94D0000C94D0000C94D0000C94D00010
:100030000C94D0000C94D0000C94D0000C94D00000
:100040000C949B1B0C94D0000C940F1E0C94D000AD
:100050000C94D0000C94D0000C94D0000C94D000E0
:100060000C94D0000C94D000F608F908FE0806099C
:100070000B09110917091D092009230926092A0955
:10008000330936093B09D80CD80CD80CD80CD80C3D
:10009000D80CD80CD80CD80CD80CD80CD80CD80C40
:1000A000D80CD80CD80CD80CD80CD80CD80CD80C30
:1000B000D80CD80CD80CD80C410948094F0956095E
:1000C0005C0963090001030206040C08080C04061D
:1000D00002030100F09040009810A8A61300C4404D
:1000E00000C804986491B19D00918040A0EB9CA150
:1000F000101000000000240027002A00000000006B
:10010000250028002B000000000023002600290005
:1001100004040404040404040202020202020303AD
:1001200003030303010204081020408001020408B5
:100130001020010204081020000000070002010046
:10014000000304060000000000000000E6020B1F90
:1001500011241FBECFEFD8E0DEBFCDBF14E0A0E07A
:10016000B1E0EAEFF3E402C005900D92A833B107C5
:10017000D9F718E0A8E3B4E001C01D92A030B107A0
:10018000E1F711E0C0E5D1E004C02297FE010E9432
:100190006521CC34D107C9F70E94081E0C94FB21BD
:1001A0000C940000EF92FF920F931F938DEE97E057
:1001B00060E071E00E949E201092380481E08093FC
:1001C00039040E946C031092BD061092BE066FEFB8
:1001D0007FEF80E090E00E94DE1D7B018C010E9499
:1001E000E31BDC01CB018E259F250E94001E6FEFD3
:1001F0007FEF80E090E00E94DE1DAB01BC0190919A
:10020000480780E02091470730E0822B932B84271A
:1002100095270E94001E6FEF7FEF80E090E00E9424
:10022000DE1DAB01BC0190914A0780E02091490797
:1002300030E0822B932B842795270E94001E6FEFBE
:100240007FEF80E090E00E94DE1DAB01BC01909149
:100250004C0780E020914B0730E0822B932B8427C2
:1002600095270E94001E6FEF7FEF80E090E00E94D4
:10027000DE1DAB01BC0190914E0780E020914D073F
:1002800030E0822B932B842795270E94001E0E942A
:10029000F60C0E9476181F910F91FF90EF90089531
:1002A000CF93DF9310923A04C0E0D0E0CE010E94D9
:1002B000E021FE01E95BF84F80832196C830D1052B
:1002C000A9F7C8E0D0E0CE010E94E021FE01E95B81
:1002D000F84F80832196C031D105A9F789E69EE0C9
:1002E0009093AF048093AE0489E89DE09093B104AD
:1002F0008093B00487E19DE09093B3048093B204AF
:100300000E94EC020E94D2008DEE97E069E171E05C
:100310000E949E208DEE97E06AE171E00E949E208F
:10032000DF91CF9108950F931F93DF93CF93CDB7B4
:10033000DEB728970FB6F894DEBF0FBECDBF83E4BB
:1003400094E00E940E0683E494E08E010F5F1F4F3D
:10035000B8010E942A07813011F080E020C088EBAC
:1003600091E00E94A5028DEE97E067E571E00E94A2
:100370007C1FC8010E94D0108DEE97E069E171E00A
:100380000E949E20AFE3B7E0F80188E001900D9253
:100390008150E1F781E08093380480933A042896F5
:1003A0000FB6F894DEBF0FBECDBFCF91DF911F9186
:1003B0000F9108950E9472140E949301882309F0FE
:1003C000BBC080913804882311F00E94D200809134
:1003D0003904882309F467C087E497E06FE477E085
:1003E00048E050E00E94CA21009761F48DEE97E04A
:1003F00068E671E00E949E201092390481E08093AB
:100400003E0708958DEE97E062E871E00E947C1F40
:1004100087E497E00E94D0108DEE97E063E971E0E9
:100420000E947C1F8FE497E00E94D0108DEE97E031
:1004300065EA71E00E949E208CE48093CC06809156
:1004400057078F5F809357078093CD06A6EDB6E0E0
:10045000EFE4F7E088E001900D928150E1F7AEEC17
:10046000B6E0E7E4F7E088E001900D928150E1F713
:1004700082E28093C306AEEDB6E0EFE3F7E088E0FA
:1004800001900D928150E1F786EA94E060E170E41A
:100490000E94EA0781E08093A4048CE60E94D118B0
:1004A0001092390408950E94E31B9B01AC016091F6
:1004B0005A0770915B0780913E07882391F5C90127
:1004C000861B970BBC0195E76133790750F185E4F2
:1004D0008093CC06809157078F5F80935707809356
:1004E000CD06A6EDB6E0EFE4F7E088E001900D92CE
:1004F0008150E1F7AEECB6E0E7E4F7E088E0019088
:100500000D928150E1F78DE18093C30680E78093DF
:10051000DE067093E0066093DF0685E60E94D11840
:1005200008950E949E18882311F00E9449190E9484
:10053000321081E00E94C70F0895E82FF0E0EE0F1F
:10054000FF1FE55CFB4F80810895FC0190934204FE
:1005500080934104009721F480E020E030E009C05E
:10056000BC01769567958FEF9FEF0E94C8209B0195
:1005700080E4809380008BE0809381001092820061
:10058000309389002093880010928B0010928A008B
:10059000109287001092860010926F0016BAEF2B0F
:1005A00079F02091840030918500809188009091AD
:1005B00089008217930720F410928500109284001E
:1005C00008958091410490914204089583E494E059
:1005D00063E10E941B0608951F93CF93DF938DEE76
:1005E00097E040E051EE60E070E00E94401E8DEE2A
:1005F00097E067EA71E00E949E2081E062E044EDAE
:100600000E947505CFE0D4E01881812F60E00E9440
:10061000261D812F61E00E94791D229684E0C7315A
:10062000D80791F7C7E1D4E01881812F61E00E94DB
:10063000261D812F60E00E94791D229684E0CF3133
:10064000D80791F789E061E00E94261D89E060E00B
:100650000E94791DCFE1D4E01881812F61E00E94D2
:10066000261D812F60E00E94791D229684E0C5320C
:10067000D80791F78DEE97E06AEB71E00E949E201B
:10068000DF91CF911F910895E82FF0E0EE0FFF1F4B
:10069000E95EFB4F90E0611191E08081692F0E943B
:1006A000791D0895EF92FF921F93162FE82EFF24D5
:1006B000EE0CFF1CF701E15EFB4F808170E00E94B1
:1006C000C61C8BE394E0E80EF91EF701108311823B
:1006D0001F91FF90EF90089580E060E00E94440336
:1006E00081E060E00E94440382E060E00E944403F5
:1006F00083E060E00E94440380E090E00E94A50255
:1007000080E060E00E94520381E060E00E945203BA
:1007100082E060E00E9452030895E82FF0E0EE0FBF
:10072000FF1FE95EFB4F80810E94AE1D0895E82FF8
:10073000F0E0EE0FFF1FE15FFB4F80810E94AE1DD6
:1007400020E0892B09F421E0822F08952A989EBD8C
:100750000DB407FEFDCF3EB58EBD0DB407FEFDCF37
:100760002EB5932F80E02A9A30E0282B392BC9012F
:10077000089580E090E00E94A6038091A104853056
:1007800009F054C080E090EB0E94A603282F8091CE
:10079000A304882371F49091A204992351F08091CD
:1007A000A304E82FF0E0ED5AFB4F90838F5F809316
:1007B000A3048091A304E82FF0E0ED5AFB4F2083BF
:1007C0008F5F8093A30480915104909152048227FB
:1007D000282F22952827022E269526952025022EA1
:1007E000269520252770082E892F26950794279572
:1007F000902D822706942795902582279093520466
:1008000080935104809155042091A30490E00496B4
:1008100030E0821793072CF08091A304873408F40A
:100820006DC08DE092E80E94A60308958091A10416
:1008300087FF2EC0E09155048091A1048F5F8093C3
:10084000A1048150ED5FE80FF0E0ED5AFB4FE0812D
:1008500080915104909152048E27282F22952827A9
:10086000022E269526952025022E269520252770D6
:10087000082E892F269507942795902D8227069478
:10088000279590258227909352048093510430C07D
:100890008091A1048F5F8093A1048150833019F16E
:1008A00084302CF4882399F0813009F516C0893002
:1008B00019F08A30E1F402C0EDE21AC0E09153046D
:1008C000909155048EEF891B8093A10411C08091F3
:1008D000510490915204E82F0BC0809151049091E3
:1008E0005204E92F05C08DE092E80E94A603EAEACF
:1008F0008E2F90E0805098440E94A6030895809126
:10090000A1048530E1F5809155042091A30490E085
:10091000049630E08217930724F08091A304873473
:1009200070F184E08093A10480915504833430F009
:1009300081E090E09093520480935104809154049C
:1009400086FF0CC0209154048091A00490E030E018
:10095000822793278F719070892B89F4809151049D
:1009600090915204892B09F044C0E0919E04F091CB
:100970009F04309709F43DC080E0099546C08091FE
:10098000A104843011F080E0089510925504809104
:1009900055048093A3048FEF9FEF909352048093AC
:1009A00051042091A2042223D9F08227282F2295D6
:1009B0002827022E269526952025022E26952025CD
:1009C0002770082E892F269507942795902D82272A
:1009D0000694279590258227909352048093510482
:1009E00085E08093A1048DED92E80E94A60380E04B
:1009F00008958FEF9FEFAFEFBFEF80939A0490932E
:100A00009B04A0939C04B0939D0481E00895809181
:100A1000A1048530C1F48091A3048823A1F41EBCF5
:100A20000DB407FEFDCF0EB400FC0DC08DE092E8C2
:100A30000E94A60384E08093A1048091A204809385
:100A4000530481E0089580E00895982F86FD05C045
:100A5000907E8091A0048F71980F90935404E09140
:100A60009E04F0919F04309711F081E009958FEF7B
:100A70009FEF909352048093510480915104909180
:100A80005204209153048227282F22952827022ED2
:100A9000269526952025022E269520252770082E9E
:100AA000892F269507942795902D822706942795C0
:100AB00090258227909352048093510486E080937E
:100AC000A1048DE392E80E94A60308951F93182FB6
:100AD0004093550426E534E0C90150E00E94D72137
:100AE000812F0E9425051F9108951F93162F809333
:100AF000A0044093A2048AE061E00E94791D8AE08C
:100B000061E00E94261D8BE061E00E94261D8CE0C2
:100B100060E00E94261D8DE061E00E94261D81E5B7
:100B20008CBD8DB581608DBD82E060E00E94261D88
:100B300082E061E00E94791D80E090E00E94A603BF
:100B400085E092E80E94A60380E098EB02C080E076
:100B500090E00E94A60382E00E94AE1D892BB9F3AB
:100B6000812F90E064E0880F991F6A95E1F7876C08
:100B700090680E94A60380E496EA0E94A60386E09D
:100B800096EC0E94A60382EA94E90E94A6038CEAEE
:100B900092EC0E94A6031091A204112341F083E875
:100BA0009AEC0E94A603812F90E09E6C06C08BE811
:100BB0009AEC0E94A6038DE29EEC0E94A60383E8B5
:100BC00094EC0E94A60380E598E90E94A60387E7BB
:100BD0009CEC0E94A60380E090EE0E94A60380E0B9
:100BE00098EC0E94A60389E490EC0E94A60384E09E
:100BF0008093A1048091A00490E08F719070892B64
:100C000041F080E069EB73E040E050E00E94361C68
:100C100003C080E00E94591C1F910895FC011386B7
:100C20001586148687E090E012863197009711F0C0
:100C30000197FACF0895DC01862F90E0FC01EC5D6E
:100C4000FE4FE491EC93805F9E4FFC016491E62F90
:100C5000F0E0EE0FFF1FEA5FFE4F85919491129630
:100C60009C938E931197CD010E940E060895DF92FA
:100C7000EF92FF920F931F93FC01E080018112819C
:100C8000F894F80181818E2981838281DE2CD094B1
:100C90008D21828383E090E00E94F11BF801818125
:100CA0008D21818389E090E00E94F11BF801008191
:100CB000789485E390E00E94F11B80E010E0FF242F
:100CC0000E211F21012B09F081E01F910F91FF9050
:100CD000EF90DF9008951F93CF93DF93FC01108175
:100CE000C181D281912F909560FF12C0F8948A81C2
:100CF00089238A838981812B89838AE090E00E94FD
:100D0000F11B8A81812B8A83789487E390E011C05C
:100D1000F8948A8189238A838981812B898381E45C
:100D200090E00E94F11B8A81812B8A83789485E070
:100D300090E00E94F11BDF91CF911F910895CF9217
:100D4000DF92EF92FF920F931F93CF93DF938C016B
:100D5000E42EFF24F394C0E0D0E0C62EDD2460E052
:100D60008F2D90E08C219D21892B09F061E0C80135
:100D70000E946B06FF0C2196C830D10581F7EE204A
:100D8000A9F4F894D8011196ED91FC9112979181F4
:100D90008C918095982391831196ED91FC911297F7
:100DA00092818C918095982392837894DF91CF9152
:100DB0001F910F91FF90EF90DF90CF900895DF92F9
:100DC000EF92FF920F931F93CF93DF93FC0100816B
:100DD000C181D281F8948981D02ED0948D218983CC
:100DE00078941DE7E02EFF24115059F182E090E045
:100DF0000E94F11B888190E08E219F21892BA1F315
:100E0000F8948A818D218A838981802B89837894C3
:100E100084EF91E00E94F11BF89489818D218983F0
:100E200080E590E00E94F11B888110E090E0E822CC
:100E3000F922EF2809F411E0789484EA91E00E9405
:100E4000F11B812FDF91CF911F910F91FF90EF90B8
:100E5000DF900895AF92BF92DF92EF92FF920F93CF
:100E60001F93CF93DF93EC015B018D85882309F0FD
:100E700061C0CE010E94DF06882329F41B861D86EF
:100E80001C8690E06BC0CE0160EF40E00E949F06A0
:100E900001E0DD24EE24FF24F394CE010E94370606
:100EA000182FCE010E943706113019F48130E1F479
:100EB00039C0181709F58B85081770F460E0FE013A
:100EC000EE0DF11D838190E02F2D30E082239323DE
:100ED000181619064CF003C060E0081729F0093015
:100EE00008F04CC00C874AC0FE01EE0DF11D838155
:100EF0008F29838361E009C0612FFE01EE0DF11D92
:100F00009F2D9095838189238383CE010E946B0658
:100F10000F5FFF0C19F4E394FF24F39487E08E1520
:100F200008F0BBCF013430F0DB86DD2011F581E025
:100F30008D871FC01B861D861C8690E0DE0120E089
:100F400030E0F501E20FF31F13968C911397808325
:100F50002F5F3F4F11962830310599F7892FDF9188
:100F6000CF911F910F91FF90EF90DF90BF90AF90C6
:100F700008958B818823F1F291E0E0CFD02EBDCF90
:100F80000F931F938C01DC0116964D915C9117977E
:100F90001896ED91FC91199712968D919C9113974B
:100FA00061E00995F801228133812E5F3F4F338341
:100FB00022831F910F910895FC01828193810297F2
:100FC00093838283268137810284F385E02D41E07B
:100FD00009950895EF92FF920F931F938C017B0167
:100FE000FC016481758161600E94DC07F801608109
:100FF0007181C8010E94DC07F80182819381958389
:101000008483F182E0821F910F91FF90EF90089509
:10101000FC014481558167FF03C022E030E002C03B
:101020002EEF3FEF8EEF6802C0011124840F951F51
:10103000468157810084F185E02D820F931F61E086
:1010400009950895FC01962F2481358167FF03C01F
:10105000A2E0B0E002C0AEEFBFEF8EEF9802C00199
:101060001124820F931F268137810284F385E02D9E
:101070008A0F9B1FBA0141E0099508952F923F9274
:101080005F926F927F928F929F92AF92BF92CF9218
:10109000DF92EF92FF920F931F93DF93CF93CDB721
:1010A000DEB77C012DB63EB6DC0116964D915C9103
:1010B00017971896ED91FC9119978D919C9160E08E
:1010C0000995D82EBDE98B1709F489C1B81738F1F5
:1010D000EEE8E81770F0FCE88F1708F050C02FE733
:1010E000281708F46AC090E030E4D31608F055C021
:1010F00049C089E9D81609F418C18D1548F0A0E94E
:10110000DA1608F45CC4B7E9BD1508F0E5C0FBC009
:10111000EBE9DE1609F43CC1ED1570F121C1FFEADF
:101120008F1709F414C2F817A0F027EA281768F0FF
:1011300030EA831708F086C18EE9D81609F453C146
:10114000AFE9DA1609F03BC478C1BDEAB817A8F5D3
:10115000FAC1EFEEE81728F0F0EC8F1708F03EC266
:10116000FAC127EF281708F40EC4AA24BB24082FBD
:1011700010E007701070FFC300E010E00DC100E048
:1011800010E01FC0BC016F73707085FF02C0606CFF
:101190007F6FC7010E94080842C08C010F73107056
:1011A00085FF02C0006C1F6FC7010E94C007AC0121
:1011B000C701602F0E9422089FC0C7010E94C0077C
:1011C0008C01C7010E94C0079C018D2D90E0FC019D
:1011D000E058F040EE32F10508F0EAC3EC5CFF4F56
:1011E000EE0FFF1F0590F491E02D0994200F311FA1
:1011F00002C0201B310BC701B901D8C3209FB00129
:10120000219F700D309F700D1124CFC3C901B8010B
:101210000E94DC20CAC3C901B8010E94DC20BC01C5
:10122000C4C302C0220F331F0A95E2F7E4CF02C005
:10123000359527950A95E2F7DECF20233123DBCFC2
:10124000202B312BD8CF20273127D5CF232B21F4AA
:1012500060E006C0232B19F460E0012B09F061E087
:10126000C70170E0A3C320953095C5CF66277727C7
:10127000621B730B9AC360E070E0232B09F095C3E7
:1012800028C060E070E0201731070CF08EC321C049
:1012900060E070E0021713070CF487C31AC060E027
:1012A00070E02017310709F080C313C060E070E0E0
:1012B0002017310771F479C360E070E0201731071F
:1012C0000CF473C306C060E070E0021713070CF063
:1012D0006CC361E070E069C38D2D90E0BC01677064
:1012E0007070D2FE02C0686F7F6F62FF02C0686FCD
:1012F0007F6FC7010E94DC07F70180819181019611
:10130000918380835CC3D7018D919C911197169630
:101310004D915C9117971896ED91FC911997019654
:1013200060E00995682F70E013C0D7018D919C9102
:10133000119716964D915C9117971896ED91FC9127
:101340001997019660E00995BC01707087FD7F6F69
:10135000C7010E94DC07F701808191810296D0CFFE
:10136000D7018D919C91119716964D915C9117978D
:101370001896ED91FC911997019661E00995BC01D1
:10138000C7010E94DC07F701808191810396B8CFE5
:10139000C7010E94C0078C01D70114968D919C91C2
:1013A000159713969C938E931297C7010E94C007BE
:1013B000F70191838083C7010E94C0079C01D70178
:1013C00015969C938E93149780FF06C02E7F1596DA
:1013D0003C932E931497F3C2C701B801B3C2C7015F
:1013E0000E94C00789CFC7010E94C0078C01D701A6
:1013F0008D919C91119716964D915C911797189627
:10140000ED91FC911997019660E00995F7016481CF
:1014100075818D39910551F46160C7010E94DC0727
:10142000D7016D917C916E5F7F4F6CC0C7010E94A8
:10143000DC07F701608171815CC0C7010E94C007B1
:10144000F7015ECFD7010D911C91119716964D9122
:101450005C9117971896ED91FC91199780FD11C03A
:10146000C801019660E009959C01307087FD3F6FCF
:10147000020F131FF701808191810296918380836F
:101480000DC0C801019661E00995080F191FD70129
:101490008D919C91119703968D939C93B3EABD1502
:1014A00040F0E2EADE1668F4F0EADF1608F487C2DC
:1014B00046C025EA2D1598F537EA3D1508F47FC298
:1014C00038C0F701468157810084F185E02DD701AE
:1014D0008D919C9160E00995F701648175818D394A
:1014E000910551F46160C7010E94DC07D7016D913D
:1014F0007C916F5F7F4F06C0C7010E94DC07F70138
:1015000060817181C7010E94DC07D70112968D911D
:101510009C91139715969C938E93149711C0C701B5
:101520000E94C007892B09F44AC2F7011183008386
:1015300046C2C7010E94C007892B09F040C2D701EB
:101540000D931C933CC2F701628173812EC2F70197
:10155000648175812AC27DB66EB6C7010E94C0073C
:10156000C82E90E0880F991FEDB7FEB7E81BF90B66
:101570000FB6F894FEBF0FBEEDBF8DB69EB60894B1
:10158000811C911C00E010E05C010AC0C7010E94B0
:10159000C007F401E00FF11F918380830E5F1F4F9E
:1015A0000A151B0599F7D70116962D913C911797AF
:1015B0001C96ED91FC911D978D2D805B6C2DA401E7
:1015C0000995BC01C7010E94DC07272D362DC901F2
:1015D0000FB6F8949EBF0FBE8DBF8ECE90E09C01DB
:1015E000277030702530310509F057C06DB65EB6F2
:1015F000B3E095958795BA95E1F7A7E07A2E782222
:10160000872C9924C4010196880F991F2DB73EB7E6
:10161000281B390B0FB6F8943EBF0FBE2DBFADB6D9
:10162000BEB60894A11CB11C650100E010E009C021
:10163000C7010E94C007D6018D939D936D010F5F76
:101640001F4F80169106A4F7F50160817181C701D3
:101650000E94DC07D72C072D112707FD1095000FDE
:10166000111F0A0D1B1D09C0D8016D917C91C70186
:101670000E94DC07DA9402501040DD20A9F7F50142
:1016800060817181C7010E94DC07D7018D919C9117
:10169000119701968D939C935DC05C0173E0B594A6
:1016A000A7947A95E1F72630310509F05CC06DB654
:1016B0005EB667E0762E7A20C72CDD240894C11C24
:1016C000D11CC6010196880F991FEDB7FEB7E81B24
:1016D000F90B0FB6F894FEBF0FBEEDBFADB6BEB6A8
:1016E0000894A11CB11C450100E010E009C0C7012D
:1016F0000E94C007D4018D939D934D010F5F1F4F32
:10170000C016D106A4F7972C9394092D112707FD35
:10171000109501501040000F111F0A0D1B1DF801FC
:1017200060817181C7010E94DC079A9402501040C9
:101730009920A9F7CC0CDD1CAC0CBD1CD5016D911A
:101740007C91C7010E94DC07F7018081918101969D
:1017500091838083262D352DC9010FB6F8949EBF45
:101760000FBE8DBF2CC110E0C5018770907004972B
:10177000029708F411E02230310509F441C023300A
:1017800031053CF42115310571F02130310541F46A
:1017900020C023303105F1F12430310509F456C061
:1017A000CC24DD2470C0D7018D919C9111971696A1
:1017B0004D915C9117971896ED91FC9119970196B0
:1017C00060E00995C82EDD24F701808191810296A1
:1017D00014C0D7018D919C91119716964D915C91F3
:1017E00017971896ED91FC911997019661E009956C
:1017F0006C01F7018081918103969183808343C0BE
:10180000C7010E94C0076C01D7018D919C9111976F
:10181000019637C0C7010E94C0076C01F7018081A3
:101820009181468157810084F185E02D019660E029
:10183000099502C0CC0CDD1C1A95E2F7C80ED11C2C
:10184000D7018D919C91119702961BC0C7010E94F0
:10185000C0076C01F7018081918146815781008426
:10186000F185E02D019661E0099502C0CC0CDD1CEC
:101870001A95E2F7C80ED91ED7018D919C91119748
:1018800003968D939C93C50187709070823091056B
:1018900069F18330910534F4009779F0019709F0EC
:1018A0008EC017C08430910509F441C08430910581
:1018B0007CF1059709F083C048C0F7014681578144
:1018C0000084F185E02DC60160E00995682F70E085
:1018D00038C0D7011A960D911C911B97C7010E9421
:1018E000C007BC01F701268137811EC0D7011696BB
:1018F0004D915C9117971896ED91FC911997C6013F
:1019000060E00995BC01707087FF1BC07F6F19C034
:10191000F70102851385C7010E94C007BC01D701EA
:1019200016962D913C911797C60140E01CC0F70117
:10193000468157810084F185E02DC60161E009955B
:10194000BC01C7010E94DC073AC0D7011A960D916D
:101950001C911B97C7010E94C007BC01F70126819B
:101960003781C60141E0F801099529C0C70160E04F
:1019700070E00E94DC07C5010894A11CB11C081787
:101980001907A4F715C0C7010E94C007BC018D2D1F
:1019900090E0877090700196880F991FF70122815F
:1019A0003381280F391F33832283C7010E94DC074C
:1019B000D7018D919C91119701968D939C930FB6B1
:1019C000F8943EBE0FBE2DBECF91DF911F910F91B7
:1019D000FF90EF90DF90CF90BF90AF909F908F904F
:1019E0007F906F905F903F902F9008951092A40485
:1019F0001092A50480E092E19093AB048093AA0436
:101A00009093A9048093A80480E091E09093B50698
:101A10008093B4061092B7061092B6061092B806DC
:101A20008FEF9FEF9093A7048093A6040895DF9211
:101A3000EF92FF920F931F93CF93DF93D62EEA017D
:101A4000813069F0813020F0853009F05AC029C01A
:101A500085E090E09093B7068093B60652C00E944E
:101A6000E31B7B018C01DD2029F420E030E040E025
:101A700050E007C0888199819C01442737FD40953B
:101A8000542F2E0D3F1D401F511F2093B906309338
:101A9000BA064093BB065093BC0681E08093B8061B
:101AA00030C085E48093CC06809157078F5F809388
:101AB00057078093CD06A6EDB6E0EFE4F7E088E0A7
:101AC00001900D928150E1F7AEECB6E0E7E4F7E06B
:101AD00088E001900D928150E1F78DE18093C3067B
:101AE00085E78093DE06DD2019F440E050E002C077
:101AF000488159815093E0064093DF0685E60E94B5
:101B0000D118DF91CF911F910F91FF90EF90DF904F
:101B100008951F93CF93DF93EC01FC01E40FF11DB7
:101B2000E031F10508F056C08530910509F446C052
:101B300086309105A0F48230910549F183309105FA
:101B400038F40097F1F08130910509F043C01BC0D3
:101B500083309105F1F084309105E1F51CC08D30A2
:101B6000910558F48830910508F093C086309105AE
:101B700039F18730910571F525C08D30910551F50A
:101B800025C080E001C081E00E9444039EC082E045
:101B9000FBCF83E0F9CF162F687083E00E944403E7
:101BA000612F647082E00E944403612F627081E0C3
:101BB0000E944403117080E0612FE6CF80E003C0F3
:101BC00081E001C082E00E9452037FC0CB010E94ED
:101BD000A5027BC0C031D105D8F082E0E031F80722
:101BE000B8F480E192E02091B4063091B506821BF2
:101BF000930BE817F90718F082E090E062C0FE014D
:101C0000EC54FB4F442311F070971FC0709725C010
:101C100080E1C030D80718F182E1E030F807F8F42D
:101C200080E092E12091B4063091B506821B930BBF
:101C3000E817F90718F481E090E043C0FE01EC5486
:101C4000FB4F442341F0E050F041872F992787FD57
:101C50009A95819302C0E050F041608336C080E2E3
:101C6000C030D80778F081E2E030F80758F4CE01B0
:101C7000805F9F41442319F00E94F62126C00E94F4
:101C8000E82123C080E4C030D80730F0EB52F044A4
:101C900018F484E090E015C08DEE97E06BED71E0F4
:101CA0000E947C1F8DEE97E0BE0140E150E00E9453
:101CB0002D208DEE97E06AEF71E00E949E2083E078
:101CC00090E09093B7068093B606DF91CF911F9175
:101CD0000895DF92EF92FF920F931F93CF93DF93BC
:101CE000EC01AC01460F511D4031510508F08BC08D
:101CF0008630910509F44DC087309105A0F48230FB
:101D0000910589F18330910538F4009721F18130F4
:101D1000910509F078C021C08430910541F18530EA
:101D20009105A8F522C08A309105E9F18B30910523
:101D300038F48830910599F18930910590F52BC0E0
:101D40008C309105B1F18C30910578F18D30910591
:101D500009F059C054C080E001C081E00E948D03A9
:101D6000682F70E00BC182E0F9CF83E0F7CF83E00A
:101D70000E948D03D82E82E00E948D03082F81E0FF
:101D80000E948D03E82E80E00E948D0321C080E038
:101D900003C081E001C082E00E949D02E1CF80E0AB
:101DA00005C081E003C082E001C083E00E94970388
:101DB000D7CF83E00E949703D82E82E00E9497033A
:101DC000082F81E00E949703E82E80E00E9497038D
:101DD0006D2D70E033E0660F771F3A95E1F710E064
:101DE000000F111F000F111F602B712B90E0682B4B
:101DF000792BFF24EE0CFF1C6E297F29BFC00E94A7
:101E0000E102BC01BBC0C031D105D8F082E0403155
:101E10005807B8F480E192E02091B4063091B506FD
:101E2000821B930B4817590718F082E090E0A0C07E
:101E3000FE01EC54FB4F662311F0709725C070979C
:101E40002DC0E0E1C030DE0758F1F2E140305F071D
:101E500038F580E092E12091B4063091B506821BFE
:101E6000930B4817590748F48DEE97E06BEF71E03C
:101E70000E949E2081E090E07BC0FE01EC54FB4F6D
:101E8000662351F0E050F041919180E02081622F73
:101E900070E0682B792B72C0E050F041808160CFF8
:101EA00080E2C030D807C0F0E1E240305E07A0F425
:101EB000CE01805F9F41662361F00E94E021182FD0
:101EC000CE018F5E9F410E94E021312F20E0682FDC
:101ED00032C00E94E02144CFF0E3C030DF07A8F019
:101EE00080E34330580788F4FE01E050F043662356
:101EF00041F0E151FF4F8491C051DF42FE019491C6
:101F000017C0E151FF4F84912BCFF0E4C030DF07C1
:101F1000D0F04B525044B8F4FE01E050F044662338
:101F200071F0EC53FF4F8491CB53DF43FE0194914A
:101F3000382F20E0692F70E0622B732B1FC0EC5309
:101F4000FF4F84910DCF8DEE97E06CE072E00E9420
:101F50007C1F8DEE97E0BE0140E150E00E942D20F5
:101F60008DEE97E06AEF71E00E949E2083E090E0A2
:101F70009093B7068093B60660E070E0CB01DF91E6
:101F8000CF911F910F91FF90EF90DF900895FF92F6
:101F90000F931F93F82E8091A404882309F45EC048
:101FA0008091B6069091B706892BB1F08DEE97E03F
:101FB00068E272E00E947C1F6091B6067091B706DD
:101FC0008DEE97E04AE050E00E9474208DEE97E09D
:101FD0006AEF71E00E949E208091B6069091B7064C
:101FE000892BE1F58091A6049091A7048F5F9F4F04
:101FF000A9F18091B806882369F00091B906109183
:10200000BA060E94E31B061B170B1016110634F1CB
:102010001092B806FF20D1F48091A6049091A704F5
:1020200060E040E050E00E94690E853B910571F44C
:1020300015C08091B6069091B706892B79F486E099
:1020400090E09093B7068093B60608C086EA94E0C5
:102050000E943E088091A504882359F71F910F9193
:10206000FF9008951F93CF93DF9310E0C0E0D0E07E
:102070008C2F0E94970390E00C2E02C0880F991FAE
:102080000A94E2F7182B2196C430D10589F74091C4
:10209000BE06812F90E080959095242F30E082231A
:1020A000932324E0880F991F2A95E1F74095412357
:1020B000482B8091BD0648231093BE06442349F166
:1020C00085E48093CC06809157078F5F80935707F4
:1020D0008093CD06A6EDB6E0EFE4F7E088E001904E
:1020E0000D928150E1F7AEECB6E0E7E4F7E088E06E
:1020F00001900D928150E1F78DE18093C30682E655
:102100008093DE064093DF061092E00685E60E948B
:10211000D118DF91CF911F9108958091BF06882338
:1021200089F08091C006882369F48091C1068823D4
:1021300019F46AE472E002C06EE472E08DEE97E09A
:102140000E949E201092BF060895CF92DF92EF92D8
:10215000FF920F931F93E82EFF249DEEC92E97E068
:10216000D92EF70184E0F595E7958A95E1F70FE41C
:1021700012E0E00FF11FC60160810E94F81E8FE09F
:10218000E822FF240E0D1F1DC601F80160810E9488
:10219000F81E1F910F91FF90EF90DF90CF90089560
:1021A0000F931F93CF93DF938C01C0E0D0E0F80131
:1021B000EC0FFD1F80810E94A5102196C830D1052B
:1021C000B1F7DF91CF911F910F9108951F93182FB1
:1021D000892F0E94A510812F0E94A5101F9108959C
:1021E000EF92FF920F931F93CF93DF93EC018DEE4D
:1021F00097E068850E94F81E8DEE97E060E20E94ED
:10220000F81E89850E94A5108DEE97E060E20E947D
:10221000F81ECE010A960E94D0108DEE97E060E283
:102220000E94F81ECE0142960E94D0108DEE97E0DB
:1022300060E20E94F81E8885863509F410C1873552
:1022400078F48C34E9F08D3420F4853409F058C2E8
:102250001CC0823509F428C2833509F051C219C067
:10226000823709F42DC2833720F4873509F048C23C
:10227000FAC1833709F48BC0863709F041C2A0C187
:10228000CE014A960E94D0103BC28DEE97E06A8D37
:1022900012C28A8D80FD02C06EE601C069E78DEE34
:1022A00097E00E94F81E8A8D80FF09C08E8D0E94E3
:1022B000A5108F8D0E94A51088A10E94A5108DEEFB
:1022C00097E060E20E94F81E8A8D81FD02C06EE6F2
:1022D00001C069E78DEE97E00E94F81E8A8D81FFAC
:1022E00004C08C8D9D8D0E94E6108DEE97E060E21B
:1022F0000E94F81E00E010E02A8D822F880F880FC0
:102300008595859585958595992787FD9095002ECE
:1023100002C0959587950A94E2F780FD04C08DEE82
:1023200097E06AE721C022952695269523708B8D2C
:102330008370880F880F822B8295807F8595859585
:1023400085958595992787FD9095002E02C09595D6
:1023500087950A94E2F780FD04C08DEE97E069E767
:1023600003C08DEE97E06EE60E94F81E0F5F1F4FD0
:102370000430110509F68DEE97E060E20E94F81E28
:102380008AA10E94A51089A10E94A510B9C100E0F0
:1023900010E08A8D8295807F8595859585958595B8
:1023A000992787FD9095002E02C0959587950A94F0
:1023B000E2F780FF04C08DEE97E069E703C08DEE81
:1023C00097E06EE60E94F81E0F5F1F4F0430110564
:1023D00001F78DEE97E060E20E94F81E00E010E049
:1023E0008A8D8595859585958595992787FD909505
:1023F000002E02C0959587950A94E2F780FF04C0ED
:102400008DEE97E069E703C08DEE97E06EE60E94DF
:10241000F81E0F5F1F4F0430110511F78DEE97E086
:1024200060E20E94F81E8B8D9C8D0E94E6108DEE5E
:1024300097E060E20E94F81E8D8D0E94A5108F8D9E
:102440000E94A51089A10E94A5108DEE97E060E280
:102450000E94F81E8BA190E00E94E61051C18A8D67
:1024600080FD02C06AE705C081FD02C06EE601C0C2
:1024700069E78DEE97E00E94F81E8DEE97E060E22E
:102480000E94F81E8A8D82FD02C06AE705C083FDA6
:1024900002C06EE601C069E78DEE97E00E94F81E6B
:1024A0008DEE97E060E20E94F81E8A8D84FD02C0E6
:1024B0006EE601C069E78DEE97E00E94F81E8DEE92
:1024C00097E060E20E94F81E8A8D85FD02C06EE6EC
:1024D00001C069E78DEE97E00E94F81E8A8D85FFA6
:1024E00004C08C8D9D8D0E94E6108DEE97E060E219
:1024F0000E94F81E8A8D86FD02C06EE601C069E763
:102500008DEE97E00E94F81E8A8D87FD02C06EE670
:1025100001C069E78DEE97E00E94F81E8A8D807CED
:1025200021F08E8D9F8D0E94E6108DEE97E060E287
:102530000E94F81E8B8D80FD02C06EE601C069E727
:102540008DEE97E00E94F81E8B8D80FF04C088A15D
:1025500099A10E94E6108DEE97E060E20E94F81EBD
:102560008B8D81FD02C06EE601C069E78DEE97E0BC
:102570000E94F81E8B8D81FF04C08AA19BA10E943E
:10258000E6108DEE97E060E20E94F81E8B8D82FDD2
:1025900002C06EE601C069E78DEE97E00E94F81E6A
:1025A0008DEE97E060E20E94F81E8B8D83FD02C0E5
:1025B0006EE601C069E78DEE97E00E94F81EA0C0AC
:1025C0008A8D80FD02C06EE601C069E78DEE97E05E
:1025D0000E94F81E8DEE97E060E20E94F81E8A8D40
:1025E00081FD02C06EE601C069E78DEE97E00E94B2
:1025F000F81E8DEE97E060E20E94F81E8A8D82FD43
:1026000002C06EE601C069E78DEE97E00E94F81EF9
:102610008DEE97E060E20E94F81E8B8D0E94A5105F
:102620008DEE97E060E20E94F81E8C8D9D8D0E94D9
:10263000E6108DEE97E060E20E94F81E8E8D9F8D71
:102640000E94E6108DEE97E060E20E94F81E88A1DD
:1026500099A10E94E6108DEE97E060E20E94F81EBC
:102660008AA19BA1F9CE8A8D8F710E94A5108DEE53
:1026700097E060E20E94F81E8B8D9C8D0E94E61010
:102680007E0100E010E006C0F701848D0E94A510D5
:102690000F5F1F4F0894E11CF11C8A8D8F7190E031
:1026A000081719078CF32CC08A8D8F710E94A51012
:1026B0008DEE97E060E20E94F81E8B8D9C8DCCCE53
:1026C0008A8D8F710E94A5108DEE97E060E20E94C6
:1026D000F81E8B8D9C8D0E94E6107E0100E010E0BC
:1026E00006C0F701848D0E94A5100F5F1F4F08944C
:1026F000E11CF11C8A8D8F7190E0081719078CF38B
:102700008DEE97E06EE472E00E949E20DF91CF9103
:102710001F910F91FF90EF900895CF93DF938091D9
:10272000C1068823C9F48091C206882319F010924B
:10273000C20622C08DEE97E00E94C81EEC018FEF0A
:10274000CF3FD807B9F3CA30D10519F0CD30D10544
:1027500029F481E08093C1068AE00EC08091BF0613
:10276000882349F08091C006882329F48DEE97E0F4
:102770006C2F0E94F81E8C2FDF91CF9108950E943C
:102780008D13282F803781F081374CF4823661F029
:1027900083363CF4893099F3803219F4F0CF8537D1
:1027A00019F081E08093C106332727FD3095C901D8
:1027B00008950E948D138A3061F08E3651F089376A
:1027C00019F421E030E007C08A3799F72FEF3FEF87
:1027D00002C020E030E0C90108950E948D138A30C4
:1027E00031F08E3621F08937C1F781E0089580E01D
:1027F00008950F931F9310E000E00E948D13982F0F
:102800008A3011F410E01CC080538A3020F41295F5
:10281000107F182B12C0892F8156863020F4129514
:10282000107F975507C0892F8154863028F4129560
:10283000107F9753192B01C001500F5F0230E8F24F
:10284000812F1F910F9108950F931F930E94F913E9
:10285000182F00E00E94F913282F30E0202B312B95
:10286000C9011F910F9108950F931F93CF93DF9389
:102870008C010E948D138032E1F38930D1F38A32CA
:1028800049F4F801A7E4B7E088E00D900192815087
:10289000E1F719C0843249F4F801AFE4B7E088E009
:1028A0000D9001928150E1F70EC08093C206C0E006
:1028B000D0E00E94F913F801EC0FFD1F80832196F0
:1028C000C830D105B1F7DF91CF911F910F910895D5
:1028D00002C00E948D138091C1068823D1F30E940B
:1028E0008D100895EF92FF920F931F93DF93CF9374
:1028F000CDB7DEB728970FB6F894DEBF0FBECDBFB9
:102900008DEE97E00E949D1E892B09F4E2C3109280
:10291000C1061092C2060E948D13182F8D3239F411
:102920001092C0068DEE97E060E672E020C08B3218
:1029300041F481E08093C0068DEE97E069E772E094
:1029400016C08D33B9F48DEE97E063E972E00E9412
:102950007C1F04C08DEE97E00E94F81E0E948D132C
:10296000682F8A30B9F78DEE97E068E972E00E942F
:102970009E20AFC38091C006882369F48DEE97E056
:102980006DE20E94F81E8DEE97E0612F0E94F81E06
:1029900081E08093BF061435C4F412350CF0DAC020
:1029A0001A3209F489C31B323CF41A3009F484C387
:1029B0001D3009F07AC380C31C3409F4CBC01D3428
:1029C000F9F0153409F071C3C5C01C3609F4C2C052
:1029D0001D3654F416350CF468C319350CF4BAC01E
:1029E000153609F062C3B6C012370CF45EC3143753
:1029F0000CF4B0C0812F8657833008F056C3AAC0AC
:102A00000E94F913823009F478C0833030F48823AF
:102A100071F0813009F053C36DC0843009F481C076
:102A2000843008F46FC0853009F049C389C08091B3
:102A3000C106882309F04BC30E948D108DEE97E0EC
:102A40006DE972E00E947C1F87E497E00E94D0103D
:102A50008DEE97E00E9487208DEE97E065EB72E0A7
:102A60000E947C1F8FE497E00E94D0108DEE97E0CB
:102A70000E94872000E010E07E010894E11CF11C18
:102A8000C8010E94E021F701E00FF11F80830F5F72
:102A90001F4F08301105A1F78DEE97E06DEC72E045
:102AA0000E947C1FC7010E94D0108DEE97E00E940B
:102AB000872000E010E07E010894E11CF11CC801B1
:102AC00008960E94E021F701E00FF11F80830F5F5D
:102AD0001F4F0830110599F78DEE97E065EE72E013
:102AE0000E947C1FC7010E94D0108DEE97E00E94CB
:102AF0008720EDC287E497E002C08FE497E00E9450
:102B00003414E5C200E010E0F801E95BF84FC801B9
:102B100060810E94E8210F5F1F4F08301105A1F767
:102B2000D6C208E010E0F801E95BF84FC801608107
:102B30000E94E8210F5F1F4F00311105A1F7C7C2A6
:102B4000A7E4B7E0EFE4F7E088E001900D92815050
:102B5000E1F7BDC21093CC060E94F9138093CD0615
:102B60008EEC96E00E94341486ED96E00E943414B8
:102B70008AE18093C306163509F440C117357CF409
:102B80001C34E9F01D3424F4153409F07AC224C051
:102B9000123509F438C2133509F073C22BC012374D
:102BA00009F444C2133724F4173509F06AC205C288
:102BB000133709F4B0C0163709F063C2C6C182E208
:102BC0008093C306AEEDB6E0EFE3F7E088E0019056
:102BD0000D928150E1F755C28DE18093C3060E94AA
:102BE000BF138093DE060E9424149093E006809326
:102BF000DF0647C283E28093C3060E94ED13817013
:102C00009091DE069E7F982B9093DE0690FF0CC07D
:102C10000E94F9138093E2060E94F9138093E30661
:102C20000E94F9138093E4060E94ED138170880FCF
:102C30009091DE069D7F982B9093DE0691FF06C053
:102C40000E9424149093E1068093E0068091DE06B2
:102C500083708093DE068091DF068C7F8093DF0691
:102C600000E010E061E0E62EF12C0E94D913AC01E7
:102C70008FEF4F3F580709F43FC09701002E02C065
:102C8000220F331F0A94E2F79091DE06892F880FF6
:102C9000880F8595859585958595822B8F70880FF2
:102CA000880F937C982B002E02C0440F551F0A9466
:102CB000E2F7292F22952695269523703091DF067D
:102CC000832F8370880F880F822B8295807F859554
:102CD000859585958595842B282F2295220F220F87
:102CE000207C9F73922B9093DE0686958695837049
:102CF0003C7F382B3093DF060F5F1F4F04301105E8
:102D000009F0B3CF0E94F9138093E6060E94F913ED
:102D10008093E506B6C184E28093C3068091DE0607
:102D2000807F8093DE0600E010E051E0E52EF12C7C
:102D30000E94ED138823B1F09701002E02C0220FEC
:102D4000331F0A94E2F79091DE06892F8295807FE7
:102D50008595859585958595822B8F70907F982B8D
:102D60009093DE060F5F1F4F0430110509F7809125
:102D7000DE068F708093DE0600E010E041E0E42E76
:102D8000F12C0E94ED138823A9F09701002E02C0B8
:102D9000220F331F0A94E2F79091DE06892F859562
:102DA000859585958595822B8295807F9F70982B40
:102DB0009093DE060F5F1F4F0430110511F70E943C
:102DC00024149093E0068093DF060E94F91301EE2D
:102DD00016E08093E1061092E2060E94F9138093B8
:102DE000E306F80113820E94F9138093E506F801C7
:102DF00015820E94F9138093E70643C184E2809311
:102E0000C3060E94D9139C0140E0FFEF8F3F9F074C
:102E100009F041E08091DE068C7F922F9170990F2E
:102E2000842B892B8093DE060E94D913AC0120E00D
:102E30008FEF4F3F580709F021E0220F220F8091BA
:102E4000DE06837F942F9170990F990F990F822B33
:102E5000892B8093DE060E94ED1381708295807F1E
:102E60009091DE069F7E982B9093DE060E94ED13D4
:102E700081708295880F807E9091DE069F7D982BD1
:102E80009093DE0695FF06C00E9424149093E106FD
:102E90008093E0060E94ED1381708295880F880F61
:102EA000807C9091DE069F7B982B9093DE060E949B
:102EB000ED138795882787959091DE069F77982B4D
:102EC0009093DE06907C31F00E9424149093E306E8
:102ED0008093E2060E94ED1381709091DF069E7F41
:102EE000982B9093DF0690FF06C00E9424149093C5
:102EF000E5068093E4060E94ED138170880F90919F
:102F0000DF069D7F982B9093DF0691FF06C00E94FD
:102F100024149093E7068093E6060E94ED138170D7
:102F2000880F880F9091DF069B7F982B9093DF0688
:102F30000E94ED138170880F880F880F9091DF0633
:102F4000977F982B9093DF069CC084E28093C30602
:102F50000E94ED1381709091DE069E7F982B9093D6
:102F6000DE060E94ED138170880F9091DE069D7F32
:102F7000982B9093DE060E94ED138170880F880FC6
:102F80009091DE069B7F982B9093DE060E94F913AA
:102F90008093DF060E9424149093E3068093E20658
:102FA0000E9424149093E5068093E4060E94241462
:102FB0009093E7068093E60664C00E94F9138F7130
:102FC0009091DE06907E982B9093DE060E9424144A
:102FD0009093E0068093DF0631EEE32E36E0F32E89
:102FE00000E010E007C00E94F913F70181937F0110
:102FF0000F5F1F4F2091DE062F71822F90E0081780
:1030000019078CF338C00E94F9138F719091DE0676
:10301000907E982B9093DE060E9424149093E006F5
:103020008093DF068091C3068D5F29C00E94F9134B
:103030008F719091DE06907E982B9093DE060E9411
:1030400024149093E0068093DF0621EEE22E26E022
:10305000F22E00E010E007C00E942414F7018193D3
:103060007F010F5F1F4F2091DE062F71822F90E0AE
:10307000081719078CF38091C3068D5F820F809328
:10308000C3068091C1068823D1F40E948D138D3030
:1030900039F08A3029F08032C1F38930B1F30FC0A2
:1030A0000E948D100E947D1812C00E9468148DEE3F
:1030B00097E06DEF72E009C00E94681408C00E949A
:1030C00068148DEE97E064E173E00E949E200E94F8
:1030D000681428960FB6F894DEBF0FBECDBFCF910F
:1030E000DF911F910F91FF90EF9008958FEF9FEF69
:1030F0009093590780935807089502C00E947F0457
:103100000E9407058823D1F3A4ECB6E0EDE2F3E0DA
:1031100088E001900D928150E1F764EC76E04091F7
:10312000C3060E9466058DEE97E066E373E00E9499
:103130007C1F84EC96E00E94F0100895CF93DF93FB
:103140000E947F048823E9F08091510490915204F9
:10315000892BB9F41AC087E497E0BE016E5E7F4FF9
:1031600048E050E00E94CA21009759F4409155046C
:1031700021E037E0C901BE0150E00E94D72181E083
:1031800001C080E0DF91CF910895C6E5D4E0CE0183
:103190006DE273E048E050E00E94CA21009789F791
:1031A000DACFCF92DF92EF92FF920F931F93C82E48
:1031B0006091010470910204882777FD8095982F13
:1031C0000E94DE1D0E947D180E94E31B7B018C0182
:1031D000DD240E949E188823E1F0809109078C1558
:1031E000C1F490910A0780915707981791F48DEEDA
:1031F00097E064E473E00E949E2080913E0788235C
:1032000031F40E94E31B70935B0760935A0781E0DF
:1032100039C00E94E31B6E197F09ED2DF0E0EE0F1F
:10322000FF1FEF5FFB4F208131812617370710F515
:10323000D394ED2DF0E0EE0FFF1FEF5FFB4F6081A9
:103240007181882777FD8095982F0E94DE1D87E089
:10325000D81651F48DEE97E06CE673E00E949E2044
:1032600081E0809338040DC00E947D180E94E31B0A
:103270007B018C010E949301882319F40E94C70FDF
:10328000A8CF80E01F910F91FF90EF90DF90CF903B
:103290000895FF920F931F93CF93DF9381E097E000
:1032A0000E94F01080910907883509F411C2893510
:1032B000B0F4823509F4D9C1833538F4853409F482
:1032C000A3C18C3409F02BC230C2863509F4F1C099
:1032D000873508F09BC1833509F021C211C08437BE
:1032E00050F4823708F021C2853609F413C28C36B7
:1032F00009F015C20FC28657823008F010C215C2FD
:1033000080910A07282F30E0809158079091590743
:103310008217930709F466C0309359072093580722
:1033200080911B0780FF0FC080E060911F070E9403
:10333000520381E0609120070E94520382E0609175
:1033400021070E94520380911B0781FF06C08091D4
:103350001D0790911E070E94A50200E010E0C1E049
:10336000D0E020911B07822F880F880F85958595C7
:1033700085958595992787FD9095002E02C0959596
:1033800087950A94E2F780FF1BC0CE01002E02C091
:10339000880F991F0A94E2F72295269526952370A7
:1033A00060911C076370660F660F622B6295607FE9
:1033B00065956595659565956823802F0E94440302
:1033C0000F5F1F4F0430110561F620912307822FF4
:1033D00080959091BD068923909122072923822B05
:1033E0008093BD0683E78093CC0684E28093C30676
:1033F00080E00E948D03F82E81E00E948D03082F4B
:1034000082E00E948D03182F83E00E948D03000F3D
:10341000110F110F102B1F29880F880F880F812B78
:103420008F709091DE06907F982B9093DE0680E05F
:103430000E949703F82E81E00E949703082F82E0F4
:103440000E949703182F83E00E949703000F110F2B
:10345000110F102B1F29880F880F880F812B829541
:10346000807F9091DE069F70982B9093DE060E94DD
:10347000E1029093E0068093DF0680E00E949D02C7
:1034800001EE16E08093E1061092E20681E00E94D0
:103490009D028093E306F801138282E00E949D0260
:1034A0008093E506F80115828091BD068093E706BA
:1034B00018C180910A07282F30E080915807909119
:1034C00059078217930709F466C030935907209370
:1034D000580780911B0784FF02C00E94F60C809160
:1034E0001B0780FF04C0869581708093A40480919F
:1034F0001B0782FF06C0869586958695817080930E
:10350000A50480911B0785FF08C080911D0790913D
:103510001E079093B5068093B40680911B0786FF23
:1035200008C060911F077091200786EA94E00E940E
:10353000EA0780911B0787FF08C080911F079091C1
:1035400020079093A7048093A60480911C0780FF16
:1035500008C080912107909122079093A70480933F
:10356000A60480911C0781FF08C0809123079091D9
:1035700024079093A7048093A60480911C0782FFE0
:1035800004C01092B7061092B60680911C0783FF04
:1035900002C01092B80686E78093CC0684E280933E
:1035A000C3062091A40421708091DE068C7F909147
:1035B000A5049170990F822B892B8093DE06809150
:1035C000B6068093DF068091B4069091B50690937D
:1035D000E1068093E0068091A6049091A704909361
:1035E000E3068093E2068091A8049091A904909349
:1035F000E5068093E4068091AA049091AB04909331
:10360000E7068093E6066DC085E666C080910A07EE
:10361000282F30E08091580790915907821793071F
:10362000F9F03093590720935807CEE1D7E000E036
:1036300010E00FC080911C0790911D076991800FC9
:10364000911F70E040E020E030E00E94890D0F5FA4
:103650001F4F80911B078F7190E00817190750F3D7
:1036600087E78093CC068BE13AC082E78093CC0653
:1036700090911B079F718091DE06807E892B80933D
:10368000DE0680911C0790911D079093E0068093C1
:10369000DF06C1EED6E000E010E00EC08091DF064C
:1036A0009091E006800F911F60E040E050E00E94A2
:1036B000690E89930F5F1F4F2091DE062F71822FB5
:1036C00090E00817190750F3235E2093C30609C042
:1036D00081E08093380488E78093CC068AE1809368
:1036E000C30680910A078093CD06A6EDB6E0EBE015
:1036F000F7E088E001900D928150E1F7AEECB6E082
:10370000E7E4F7E088E001900D928150E1F70E9434
:103710007D180BC08DEE97E068E973E004C08DEE74
:1037200097E062ED73E00E949E20DF91CF911F91A0
:103730000F91FF9008951F920F920FB60F921124D0
:103740002F933F938F939F93AF93BF938091600785
:1037500090916107A0916207B0916307309164076F
:103760000196A11DB11D232F2D5F2D3720F02D5760
:103770000196A11DB11D209364078093600790936B
:103780006107A0936207B093630780915C079091F3
:103790005D07A0915E07B0915F070196A11DB11D65
:1037A00080935C0790935D07A0935E07B0935F07DB
:1037B000BF91AF919F918F913F912F910F900FBE2D
:1037C0000F901F9018958FB7F89420916007309153
:1037D000610740916207509163078FBFB901CA0129
:1037E0000895019739F0880F991F880F991F029744
:1037F0000197F1F70895789484B5826084BD84B50B
:10380000816084BD85B5826085BD85B5816085BDDB
:10381000EEE6F0E0808181608083E1E8F0E01082F4
:10382000808182608083808181608083E0E8F0E035
:10383000808181608083E1EBF0E08081846080831F
:10384000E0EBF0E0808181608083EAE7F0E0808156
:1038500084608083808182608083808181608083B6
:103860008081806880831092C1000895823000F5C5
:10387000E82FF0E0EE0FFF1FEB59F84F71836083E4
:10388000882319F08130A1F408C0809169008C7FF1
:10389000842B80936900E89A089580916900440F11
:1038A000551F440F551F837F842B80936900E99A2D
:1038B0000895823080F4882319F0813021F402C009
:1038C000E89801C0E998E82FF0E0EE0FFF1FEB59F0
:1038D000F84F1182108208951F920F920FB60F9227
:1038E00011242F933F934F935F936F937F938F9305
:1038F0009F93AF93BF93EF93FF9380916507909150
:103900006607892B29F0E0916507F0916607099514
:10391000FF91EF91BF91AF919F918F917F916F91A7
:103920005F914F913F912F910F900FBE0F901F907D
:1039300018951F920F920FB60F9211242F933F9359
:103940004F935F936F937F938F939F93AF93BF93A7
:10395000EF93FF938091670790916807892B29F077
:10396000E0916707F09168070995FF91EF91BF918A
:10397000AF919F918F917F916F915F914F913F9107
:103980002F910F900FBE0F901F9018951F93CF93FC
:10399000DF93182FEB0161E00E94261D209709F4A8
:1039A0004AC0CF3FD10509F449C0E12FF0E0E85CFF
:1039B000FE4F84918330C1F0843028F4813051F07F
:1039C0008230B1F50CC0863019F1873049F184306E
:1039D00079F514C084B5806884BDC7BD33C084B593
:1039E000806284BDC8BD2EC08091800080688093B5
:1039F0008000D0938900C093880024C0809180000B
:103A0000806280938000D0938B00C0938A001AC09C
:103A10008091B00080688093B000C093B30012C062
:103A20008091B00080628093B000C093B4000AC05F
:103A3000C038D1051CF4812F60E002C0812F61E005
:103A40000E94791DDF91CF911F910895482F50E07A
:103A5000CA018C5D9E4FFC012491405F5E4FFA01CC
:103A600084918823C1F0E82FF0E0EE0FFF1FEE50A5
:103A7000FF4FA591B491662341F49FB7F8948C91C0
:103A8000209582238C939FBF08959FB7F8948C91C3
:103A9000822B8C939FBF0895833071F0843028F47B
:103AA0008130A1F0823021F514C08630B1F087302A
:103AB000D1F08430E9F404C0809180008F7703C096
:103AC000809180008F7D80938000089584B58F77EA
:103AD00002C084B58F7D84BD08958091B0008F773A
:103AE0008093B00008958091B0008F7D8093B000E6
:103AF0000895FF920F931F93F62E482F50E0CA01AE
:103B0000885C9E4FFC012491CA018C5D9E4FFC0194
:103B10001491405F5E4FFA0104910023D9F02223F3
:103B200019F0822F0E944C1DE02FF0E0EE0FFF1FD6
:103B3000E450FF4FA591B491FF2031F49FB7F89462
:103B40008C911095812304C09FB7F8948C91812BA0
:103B50008C939FBF1F910F91FF9008950F931F9318
:103B6000482F50E0CA01885C9E4FFC012491CA0195
:103B70008C5D9E4FFC010491405F5E4FFA011491F1
:103B8000112319F420E030E015C0222319F0822F10
:103B90000E944C1D812F90E0880F991F8A5F9E4FD5
:103BA000FC01A591B4918C9120E030E0802311F0CC
:103BB00021E030E0C9011F910F910895EF92FF922B
:103BC0000F931F937B018C01611571058105910590
:103BD00029F420E030E040E050E00BC00E94BC211E
:103BE000A80197010E941121AC01CB01DA019C01CF
:103BF000AD01B901CA011F910F91FF90EF90089597
:103C0000009729F0BC0180E090E00E94C121089556
:103C10000E94FB1B0E9450010E94DA01FDCF1F92FF
:103C20000F920FB60F9211242F933F934F938F93C0
:103C30009F93EF93FF934091C600E091E907F091C5
:103C4000EA0731969F012F77307031978091EB070B
:103C50009091EC072817390739F0E759F84F40835E
:103C60003093EA072093E907FF91EF919F918F919D
:103C70004F913F912F910F900FBE0F901F9018956D
:103C8000CF93DF93EC019A01AB01E885F9852030F1
:103C900081EE380780E0480780E0580709F449C002
:103CA00081E090E00A8802C0880F991F0A94E2F729
:103CB000808360E079E08DE390E00E941121215043
:103CC000304040405040CA01B90122E030E040E0BD
:103CD00050E00E941121EC81FD813083EE81FF8153
:103CE0002083EA85FB85208141E050E0CA010E84F3
:103CF00002C0880F991F0A94E2F7282B2083EA85D7
:103D0000FB852081CA010F8402C0880F991F0A9485
:103D1000E2F7282B2083EA85FB858081088802C092
:103D2000440F551F0A94E2F7842B8083DF91CF91D3
:103D30000895108220E130E0CECFDC011296ED91A3
:103D4000FC911397E058FF4F21913191808191812F
:103D5000281B390B2F773070C9010895DC011296AA
:103D6000ED91FC911397EE57FF4F20813181929195
:103D70008291E058F0408217930719F42FEF3FEF3C
:103D800005C0E20FF31F8081282F30E0C90108959C
:103D9000DC011296ED91FC911397DF01AE57BF4FF6
:103DA0002D913C911197E058FF4F80819181E0580F
:103DB000F0408217930719F42FEF3FEF0BC0E20F8B
:103DC000F31F80812F5F3F4F2F7730702D933C93EF
:103DD000282F30E0C9010895DC011296ED91FC9185
:103DE0001397EE57FF4F80819181929382930895AC
:103DF000FC01A085B18521898C9190E0022E02C042
:103E0000959587950A94E2F780FFF6CF0484F585AF
:103E1000E02D6083089589E294E09093EE0780930B
:103E2000ED0789E697E09093F0078093EF0785EC24
:103E300090E09093F2078093F10784EC90E09093E8
:103E4000F4078093F30780EC90E09093F60780935B
:103E5000F50781EC90E09093F8078093F70786ECE4
:103E600090E09093FA078093F90784E08093FB0732
:103E700083E08093FC0787E08093FD0785E08093D3
:103E8000FE0781E08093FF0708950F931F93CF9360
:103E9000DF938C01EB0109C02196D801ED91FC91D3
:103EA0000190F081E02DC801099568816623A1F792
:103EB000DF91CF911F910F910895EF92FF920F9391
:103EC0001F93CF93DF938C017B01EA010CC0D701D4
:103ED0006D917D01D801ED91FC910190F081E02D73
:103EE000C80109952197209791F7DF91CF911F91F4
:103EF0000F91FF90EF900895DC01ED91FC9102800D
:103F0000F381E02D099508952F923F924F925F9291
:103F10006F927F928F929F92AF92BF92CF92DF92D9
:103F2000EF92FF920F931F93DF93CF93CDB7DEB73E
:103F3000A0970FB6F894DEBF0FBECDBF1C016A017B
:103F40007B01411551056105710549F440E350E0DD
:103F500060E070E020E030E00E943E2056C08824FF
:103F600099245401422E55246624772401E010E060
:103F70000C0F1D1F080D191DC701B601A3019201E9
:103F80000E94EF20F80160830894811C911CA11C01
:103F9000B11CC701B601A30192010E94EF20C90123
:103FA000DA016C017D01C114D104E104F104F1F6E0
:103FB00081E0E82EF12CEC0EFD1EE80CF91C3E0110
:103FC0000894611C711CD501C4010197A109B109B4
:103FD0006C01C818D90816C0F601EE0DFF1D40810E
:103FE0004A3010F4405D01C0495C552747FD5095AB
:103FF000652F752FC10120E030E00E943E2008941B
:10400000E108F1086E147F0439F7A0960FB6F89412
:10401000DEBF0FBECDBFCF91DF911F910F91FF90FB
:10402000EF90DF90CF90BF90AF909F908F907F9058
:104030006F905F904F903F902F900895DC01211575
:10404000310541F4ED91FC910190F081E02D642F58
:10405000099508950E94841F0895EF92FF920F938F
:104060001F939A017B0100E010E0B801A7010E94B4
:104070001E201F910F91FF90EF900895EF92FF92F5
:104080000F931F93CF93DF93EC017A018B012115DE
:10409000310541F4E881F9810190F081E02D642F30
:1040A00009951BC02A303105B1F477FF10C04DE2ED
:1040B00050E060E070E020E030E00E943E2010958B
:1040C0000095F094E094E11CF11C011D111DCE013E
:1040D000B801A7012AE00E94841FDF91CF911F91B0
:1040E0000F91FF90EF900895EF92FF920F931F931F
:1040F0007B019A010027F7FC0095102FB801A7015A
:104100000E943E201F910F91FF90EF9008950F9312
:104110001F938C014DE050E060E070E020E030E063
:104120000E943E20C8014AE050E060E070E020E0DC
:1041300030E00E943E201F910F9108950F931F932E
:104140008C010E947C1FC8010E9487201F910F9143
:104150000895629FD001739FF001829FE00DF11DD1
:10416000649FE00DF11D929FF00D839FF00D749FF1
:10417000F00D659FF00D9927729FB00DE11DF91F9D
:10418000639FB00DE11DF91FBD01CF0111240895FA
:10419000AA1BBB1B51E107C0AA1FBB1FA617B7076D
:1041A00010F0A61BB70B881F991F5A95A9F7809589
:1041B0009095BC01CD01089597FB092E07260AD0E2
:1041C00077FD04D0E5DF06D000201AF470956195E4
:1041D0007F4F0895F6F7909581959F4F0895A1E23E
:1041E0001A2EAA1BBB1BFD010DC0AA1FBB1FEE1F71
:1041F000FF1FA217B307E407F50720F0A21BB30BBC
:10420000E40BF50B661F771F881F991F1A9469F737
:1042100060957095809590959B01AC01BD01CF0193
:10422000089597FB092E05260ED057FD04D0D7DF41
:104230000AD0001C38F450954095309521953F4F99
:104240004F4F5F4F0895F6F7909580957095619563
:104250007F4F8F4F9F4F08952F923F924F925F92C3
:104260006F927F928F929F92AF92BF92CF92DF9286
:10427000EF92FF920F931F93CF93DF93CDB7DEB7EB
:10428000CA1BDB0B0FB6F894DEBF0FBECDBF09947F
:104290002A88398848885F846E847D848C849B84D6
:1042A000AA84B984C884DF80EE80FD800C811B81E4
:1042B000AA81B981CE0FD11D0FB6F894DEBF0FBE13
:1042C000CDBFED010895EE0FFF1F0590F491E02D95
:1042D0000994A0E0B0E0EFE6F1E20C943421EC01A7
:1042E000A880B980CA80DB80A114B104C104D104C4
:1042F00041F484E2A82E89EDB82E8BE5C82E87E024
:10430000D82EC601B5012DE133EF41E050E00E9407
:10431000112127EA31E440E050E00E94A9207B010E
:104320008C01C601B5012DE133EF41E050E00E9460
:104330001121CA01B9012CEE34EF4FEF5FEF0E945B
:10434000A9206E0D7F1D801F911F97FF04C0615033
:10435000704080409048688379838A839B839B0167
:10436000AC015F77B901CA01CDB7DEB7EAE00C94C2
:1043700050210E94692108958DEF93E00E946921E8
:1043800008956093FD037093FE038093FF03909361
:1043900000040895FB01DC0104C08D910190801997
:1043A00021F441505040C8F7881B990B0895FB0138
:1043B000DC0102C001900D9241505040D8F70895A1
:1043C000F999FECF92BD81BDF89A992780B50895DD
:1043D000262FF999FECF1FBA92BD81BD20BD0FB621
:1043E000F894FA9AF99A0FBE019608950E94E8216E
:0A43F000272F0C94E921F894FFCF69
:1043FA002A20506572666F726D696E6720736F66E8
:10440A00742072657365742E00003D3D3D20332E85
:10441A003134313539323635333538393739333243
:10442A003338343632363433333833323739353039
:10443A003238383431393731363933393933373517
:10444A003130203D3D3D002A204F6E655769726527
:10445A0020416464723A20002A2052756E6E696E99
:10446A0067206173206261736573746174696F6E2A
:10447A002E002A204C6F6767696E6720696E20617B
:10448A00732000206F6E20626173652073746174FB
:10449A00696F6E20002E002A20496E697469746162
:1044AA006C697A696E672E2E2E002A20496E69740D
:1044BA0020646F6E652E20456E746572696E672082
:1044CA006D61696E206C6F6F702E002A20577269B9
:1044DA0074696E6720746F20756E6D6170706564A3
:1044EA0020616464726573732000002A205374612A
:1044FA00636B206F766572666C6F77002A2052654F
:10450A006164696E6720756E6D61707065642061A3
:10451A0064647265737320002A204E6F742072756A
:10452A006E6E696E672064756520746F206572729D
:10453A006F7220737461746520002E2E2E00003075
:10454A0031323334353637383941424344454600EF
:10455A002A205465726D696E616C206563686F20EC
:10456A00454E41424C45442E002A205465726D69DD
:10457A006E616C206563686F2044495341424C4523
:10458A00442E003D3D3D2000203D3D3D002A203186
:10459A003A206D79206D6163202020202020202080
:1045AA0020203D20002A20323A2062617365206D66
:1045BA00616320202020202020203D20002A203353
:1045CA003A20656570726F6D206D79206D61632088
:1045DA0020203D20002A20343A20656570726F6DD4
:1045EA002062617365206D6163203D20002A205599
:1045FA006E6B6F776E20636D6420696E20696E70D2
:10460A00757421002A205061727365722065727276
:10461A006F7220696E20696E70757421004D4C2D81
:10462A00454442555A002A206A7573742073656E90
:10463A00743A20002A2041636B6E6F776C65646759
:10464A00656D656E742072656365697665642C2094
:10465A00636F6E74696E75696E672E002A204769EA
:10466A0076696E6720757020726573656E64696E0F
:10467A00672C207374617274696E6720736F667435
:10468A002D72657365742E002A20526563656976FA
:10469A0065642061636B207468617420776173209C
:1046AA00657870656374656420746F206265206143
:1046BA006C72656164792070726F63657373656487
:1046CA002E002A20526563656976656420756E6BD3
:1046DA006E6F776E20636F6D6D616E642C206E6FE6
:1046EA00742070726F6365737365642E0001000035
:1046FA000014005000C8002C019001F401F4010ECE
:10470A00000F001000110012000800040007000347
:10471A00000500060000000000F81E451F5D1F9DF1
:08472A001EC81EAE1EEC1E00AD
:00000001FF
