:100000000C9463000C9476090C94A3090C948B0057
:100010000C948B000C948B000C948B000C948B0034
:100020000C948B000C948B000C948B000C948B0024
:100030000C948B000C948B000C948B000C948B0014
:100040000C9459080C948B000C94110B0C948B009D
:100050000C948B000C948B000C948B000C948B00F4
:100060000C948B000C948B000000000024002700EF
:100070002A0000000000250028002B0000000000DE
:1000800023002600290004040404040404040202DA
:100090000202020203030303030301020408102007
:1000A0004080010204081020010204081020000012
:1000B0000007000201000003040600000000000029
:1000C000000088030D0C11241FBECFEFD8E0DEBF67
:1000D000CDBF12E0A0E0B1E0ECE3FCE102C005908E
:1000E0000D92A831B107D9F713E0A8E1B2E001C041
:1000F0001D92A732B107E1F710E0C6ECD0E004C0D2
:100100002297FE010E94180EC23CD107C9F70E9437
:100110000A0B0C941C0E0C9400000E948E030E948B
:10012000A108709319026093180208951F93CF934A
:10013000DF930E940A05882309F444C080913002AD
:1001400090913102892BF1F584E193E060E071E058
:100150000E947E0C10E012C084E193E069E071E03F
:100160000E947E0CE12FF0E0EB5CFD4F608184E1AA
:1001700093E04AE050E00E942F0D1F5F809134020F
:10018000181750F384E193E00E948A0D80913402A5
:100190008630C1F4C0E0D0E0FE01EB5CFD4F608131
:1001A0008C2F0E94E6032196C430D105A9F7409117
:1001B0003A0220913902942F80E030E0822B932B79
:1001C0000E944C03DF91CF911F910895CF92DF924F
:1001D000EF92FF920F931F93DF93CF93CDB7DEB7CC
:1001E00028970FB6F894DEBF0FBECDBF84E193E031
:1001F0000E94CA0B8C0197FD28C084E193E06BE05C
:1002000071E00E947E0C84E193E0B8014AE050E086
:100210000E94770DC80181978E35910580F484E1A5
:1002200093E06EE171E00E947E0C84E193E0602F28
:100230000E94FA0B84E193E061E271E004C084E182
:1002400093E063E271E00E94BA0D0E94A108209140
:10025000180230911902621B730B695E7340A8F09B
:1002600084E193E064E371E00E947E0C0E94F40359
:10027000BC0184E193E04AE050E00E94A10D0E949D
:10028000A108709319026093180280E00E94220472
:100290008823F9F084E193E065E471E00E94BA0DEF
:1002A00010E0812F61E00E94E60364EF71E080E0DE
:1002B00090E00E94D508812F60E00E94E60364EF81
:1002C00071E080E090E00E94D5081F5F143049F78C
:1002D000D4C181E00E942204882309F453C084E140
:1002E00093E06EE571E00E94BA0D80E061E00E944B
:1002F000E60381E061E00E94E60382E061E00E94A3
:10030000E60383E061E00E94E60300E010E0C8013C
:100310000E944C0361E070E080E090E00E94D5080C
:100320000D5F1F4F37E0013D130789F780E090E034
:100330000E944C0364E670E080E090E00E94D508E3
:10034000FF248F2D60E00E94E60308EC10E0C80156
:100350000E944C0365E070E080E090E00E94D508C8
:1003600004511040A1F780E090E00E944C0364EF3C
:1003700071E080E090E00E94D508F39484E0F816E4
:1003800001F77BC182E00E942204882309F47DC02A
:1003900084E193E067E771E00E94BA0DDD24EE246A
:1003A000FF2401E0802F00FF06C09FEFD91649F01F
:1003B000E5E0DE0E04C0DD2021F0FBEFDF0E11E0F2
:1003C00001C010E081FF06C02FEFE21641F035E0DA
:1003D000E30E04C0EE2019F09BEFE90E11E082FF5E
:1003E00006C0EFEFFE1641F0F5E0FF0E04C0FF205F
:1003F00019F02BEFF20E11E0602F617080E00E9487
:10040000E603602F627081E00E94E603602F647053
:1004100082E00E94E603602F687083E00E94E6039A
:1004200080E06D2D0E94080481E06E2D0E9408047A
:1004300082E06F2D0E9408046EE170E080E090E0A1
:100440000E94D508112309F40F5F093008F4AACFE0
:1004500080E060E00E94E60381E060E00E94E60345
:1004600082E060E00E94E60383E060E00E94E60331
:1004700080E060E00E94080481E060E00E940804DF
:1004800082E060E00E940804F8C083E00E94220439
:10049000882309F473C084E193E060E971E00E946D
:1004A000BA0D01E010E0F6E0EF2EE4E6CE2ED12CFE
:1004B000FF24F394F02280E06F2D0E94E60381E098
:1004C0006F2D0E94E60382E06F2D0E94E60383E019
:1004D0006F2D0E94E60302C00E9496000E949205C2
:1004E0008823D1F3E0923402F0923502C801969548
:1004F0008795817080933602C80196958795969569
:100500008795817080933702C80153E0969587954F
:100510005A95E1F7817080933802C8018F7090700E
:10052000FC01EC9DC001ED9D900DFC9D900D1124F2
:100530008093390290933A0280E00E94B00580E0F7
:100540000E94F1056CE271E080E090E00E94D50825
:100550000F5F1F4F0131110509F0AACF80E060E065
:100560000E94E60381E060E00E94E60382E060E032
:100570000E94E60383E060E00E94E6030E9496008A
:1005800082E292E00E94A70682E292E08E010F5F73
:100590001F4FB8010E94C307813009F06EC084E18B
:1005A00093E069EA71E00E947E0CFF2449E0C42ECA
:1005B000D12CCC0EDD1EF8018081F82684E193E079
:1005C00069E071E00E947E0C84E193E0F8016191A2
:1005D0008F0140E150E00E942F0D0C151D0559F7C9
:1005E0000F2D0F70F2943FE0F3220F2584E193E08A
:1005F00069EB71E00E94BA0D10E0602F617080E03D
:100600000E94E60316950795602F617081E00E94B5
:10061000E60316950795602F617082E00E94E6035D
:1006200016950795017083E0602F0E94E60300E0B5
:1006300010E000FD03C088EB91E002C080E090E094
:100640000E944C0364E670E080E090E00E94D508D0
:100650000F5F1F4F0630110561F780E060E00E94D8
:10066000E60381E060E00E94E60382E060E00E9431
:10067000E60383E060E00E94E60328960FB6F89454
:10068000DEBF0FBECDBFCF91DF911F910F91FF90C5
:10069000EF90DF90CF900895FC019093210280931A
:1006A0002002009721F480E020E030E009C0BC0186
:1006B000769567958FEF9FEF0E94C50D9B0180E4B3
:1006C000809380008BE080938100109282003093B1
:1006D00089002093880010928B0010928A0010925B
:1006E00087001092860010926F0016BAEF2B79F0F7
:1006F000209184003091850080918800909189003C
:100700008217930720F410928500109284000895B8
:1007100082E292E063E10E94B40608951F93CF93B2
:10072000DF9384E193E040E051EE60E070E00E94EE
:10073000420B84E193E06AEB71E00E94BA0D81E024
:1007400062E044ED0E940E06CFEED1E01881812FC9
:1007500060E00E94520A812F61E00E94A50A229661
:1007600081E0C73FD80791F7C7EFD1E01881812F0B
:1007700061E00E94520A812F60E00E94A50A229641
:1007800081E0CF3FD80791F789E061E00E94520AEB
:1007900089E060E00E94A50ACFEFD1E01881812FA7
:1007A00061E00E94520A812F60E00E94A50A229611
:1007B00082E0C530D80791F784E193E06DEC71E0F9
:1007C0000E94BA0DDF91CF911F910895E82FF0E0BC
:1007D000EE0FFF1FE950FE4F90E0611191E0808124
:1007E000692F0E94A50A08950F931F9380E00E942D
:1007F000D009182F092F8EE060E00E94520A8EE087
:1008000061E00E94A50A812F902F1F910F910895FA
:10081000EF92FF921F93162FE82EFF24EE0CFF1C81
:10082000F701E150FE4F808170E00E94F2098AE1F9
:1008300092E0E80EF91EF701108311821F91FF90DC
:10084000EF900895E82FF0E0EE0FFF1FE151FE4F0B
:1008500080810E94DA0A20E0892B09F421E0822FAE
:1008600008952A989EBD0DB407FEFDCF3EB58EBDFE
:100870000DB407FEFDCF2EB5932F80E02A9A30E00D
:10088000282B392BC901089580E090E00E943104A3
:1008900080918002853009F054C080E090EB0E9486
:1008A0003104282F80918202882371F49091810273
:1008B000992351F080918202E82FF0E0EE5CFD4F29
:1008C00090838F5F8093820280918202E82FF0E014
:1008D000EE5CFD4F20838F5F809382028091300217
:1008E000909131028227282F22952827022E2695C3
:1008F00026952025022E269520252770082E892F43
:10090000269507942795902D822706942795902564
:10091000822790933102809330028091340220919B
:10092000820290E0049630E0821793072CF08091C9
:100930008202873408F46DC08DE092E80E94310491
:1009400008958091800287FF2EC0E091340280914B
:1009500080028F5F809380028150ED5FE80FF0E0AE
:10096000EE5CFD4FE08180913002909131028E2744
:10097000282F22952827022E269526952025022EFF
:10098000269520252770082E892F269507942795D0
:10099000902D8227069427959025822790933102E7
:1009A0008093300230C0809180028F5F80938002FC
:1009B0008150833019F184302CF4882399F08130F0
:1009C00009F516C0893019F08A30E1F402C0EDE271
:1009D0001AC0E0913202909134028EEF891B80930D
:1009E000800211C08091300290913102E82F0BC03B
:1009F0008091300290913102E92F05C08DE092E89C
:100A00000E943104EAEA8E2F90E0805098440E94C0
:100A100031040895809180028530E1F5809134029F
:100A20002091820290E0049630E08217930724F030
:100A300080918202873470F184E0809380028091FB
:100A40003402833430F081E090E09093310280935F
:100A500030028091330286FF0CC0209133028091D6
:100A60007F0290E030E0822793278F719070892B6E
:100A700089F48091300290913102892B09F044C0B1
:100A8000E0917D02F0917E02309709F43DC080E054
:100A9000099546C080918002843011F080E008956D
:100AA0001092340280913402809382028FEF9FEF84
:100AB0009093310280933002209181022223D9F059
:100AC0008227282F22952827022E26952695202535
:100AD000022E269520252770082E892F269507940B
:100AE0002795902D8227069427959025822790930D
:100AF00031028093300285E0809380028DED92E890
:100B00000E94310480E008958FEF9FEFAFEFBFEFB9
:100B10008093790290937A02A0937B02B0937C0237
:100B200081E00895809180028530C1F48091820235
:100B30008823A1F41EBC0DB407FEFDCF0EB400FC4B
:100B40000DC08DE092E80E94310484E08093800221
:100B5000809181028093320281E0089580E00895BF
:100B6000982F86FD05C0907E80917F028F71980F2F
:100B700090933302E0917D02F0917E02309711F064
:100B800081E009958FEF9FEF9093310280933002BF
:100B90008091300290913102209132028227282FD9
:100BA00022952827022E269526952025022E269569
:100BB00020252770082E892F269507942795902D9C
:100BC000822706942795902582279093310280935F
:100BD000300286E0809380028DE392E80E94310427
:100BE0000895282F16C02223A1F093B7233011F4C3
:100BF00084E005C0223011F080E001C08CE0917FDC
:100C0000892B83BF83B7816083BF889583B78E7F2D
:100C100083BF80918002843031F708951F93162F8F
:100C200080937F02409381028AE061E00E94A50ADE
:100C30008AE061E00E94520A8BE061E00E94520A61
:100C40008CE060E00E94520A8DE061E00E94520A4E
:100C500081E58CBD8DB581608DBD82E060E00E9434
:100C6000520A82E061E00E94A50A80E090E00E94C2
:100C7000310485E092E80E94310480E098EB02C0E4
:100C800080E090E00E94310482E00E94DA0A892B21
:100C9000B9F3812F90E064E0880F991F6A95E1F71E
:100CA000876C90680E94310480E496EA0E943104C7
:100CB00086E096EC0E94310482EA94E90E943104B5
:100CC0008CEA92EC0E94310410918102112341F0D0
:100CD00083E89AEC0E943104812F90E09E6C06C05C
:100CE0008BE89AEC0E9431048DE29EEC0E94310464
:100CF00083E894EC0E94310480E598E90E94310475
:100D000087E79CEC0E94310480E090EE0E94310461
:100D100080E098EC0E94310489E490EC0E94310458
:100D200084E08093800280917F0290E08F719070C8
:100D3000892B41F080E064E474E040E050E00E94E0
:100D4000400903C080E00E9463091F910895FC01DF
:100D500013861586148687E090E0128631970097F7
:100D600011F00197FACF0895DC01862F90E0FC0185
:100D7000E656FF4FE491EC938A579F4FFC01649134
:100D8000E62FF0E0EE0FFF1FE458FF4F859194919E
:100D900012969C938E931197CD010E94A7060895F9
:100DA000DF92EF92FF920F931F93FC01E08001818D
:100DB0001281F894F80181818E2981838281DE2C51
:100DC000D0948D21828383E090E00E94FB08F8019B
:100DD00081818D21818389E090E00E94FB08F801E8
:100DE0000081789485E390E00E94FB0880E010E0A9
:100DF000FF240E211F21012B09F081E01F910F918B
:100E0000FF90EF90DF9008951F93CF93DF93FC0145
:100E10001081C181D281912F909560FF12C0F8940A
:100E20008A8189238A838981812B89838AE090E062
:100E30000E94FB088A81812B8A83789487E390E063
:100E400011C0F8948A8189238A838981812B8983BF
:100E500081E490E00E94FB088A81812B8A83789448
:100E600085E090E00E94FB08DF91CF911F910895EB
:100E7000CF92DF92EF92FF920F931F93CF93DF9366
:100E80008C01E42EFF24F394C0E0D0E0C62EDD24D4
:100E900060E08F2D90E08C219D21892B09F061E08D
:100EA000C8010E940407FF0C2196C830D10581F7C4
:100EB000EE20A9F4F894D8011196ED91FC911297C7
:100EC00091818C918095982391831196ED91FC915D
:100ED000129792818C918095982392837894DF91D8
:100EE000CF911F910F91FF90EF90DF90CF900895D9
:100EF000DF92EF92FF920F931F93CF93DF93FC014A
:100F00000081C181D281F8948981D02ED0948D2125
:100F1000898378941DE7E02EFF24115059F182E077
:100F200090E00E94FB08888190E08E219F21892B10
:100F3000A1F3F8948A818D218A838981802B89830A
:100F4000789484EF91E00E94FB08F89489818D21C8
:100F5000898380E590E00E94FB08888110E090E0A2
:100F6000E822F922EF2809F411E0789484EA91E06C
:100F70000E94FB08812FDF91CF911F910F91FF906D
:100F8000EF90DF900895AF92BF92DF92EF92FF92C1
:100F90000F931F93CF93DF93EC015B018D85882323
:100FA00009F061C0CE010E947807882329F41B86CE
:100FB0001D861C8690E06BC0CE0160EF40E00E9471
:100FC000380701E0DD24EE24FF24F394CE010E94D3
:100FD000D006182FCE010E94D006113019F48130AE
:100FE000E1F439C0181709F58B85081770F460E033
:100FF000FE01EE0DF11D838190E02F2D30E0822364
:101000009323181619064CF003C060E0081729F066
:10101000093008F04CC00C874AC0FE01EE0DF11DEE
:1010200083818F29838361E009C0612FFE01EE0D6A
:10103000F11D9F2D9095838189238383CE010E948A
:1010400004070F5FFF0C19F4E394FF24F39487E087
:101050008E1508F0BBCF013430F0DB86DD2011F5B2
:1010600081E08D871FC01B861D861C8690E0DE01F7
:1010700020E030E0F501E20FF31F13968C911397F7
:1010800080832F5F3F4F11962830310599F7892FC4
:10109000DF91CF911F910F91FF90EF90DF90BF9064
:1010A000AF9008958B818823F1F291E0E0CFD02EAC
:1010B000BDCF1F920F920FB60F9211242F933F9323
:1010C0008F939F93AF93BF938091870290918802F3
:1010D000A0918902B0918A0230918B020196A11DE4
:1010E000B11D232F2D5F2D3720F02D570196A11D07
:1010F000B11D20938B028093870290938802A09366
:101100008902B0938A028091830290918402A09117
:101110008502B09186020196A11DB11D80938302C4
:1011200090938402A0938502B0938602BF91AF9101
:101130009F918F913F912F910F900FBE0F901F9015
:1011400018958FB7F89420918702309188024091CA
:10115000890250918A028FBFB901CA0108959FB7D1
:10116000F89420918302309184024091850250913D
:10117000860286B5A89B06C08F3F21F02F5F3F4FA8
:101180004F4F5F4F9FBF542F432F322F2227280FDF
:10119000311D411D511D82E0220F331F441F551F79
:1011A0008A95D1F7B901CA010895EF92FF920F9382
:1011B0001F93CF93DF937B018C010E94AF08EB015B
:1011C0000EC00E94AF086C1B7D0B685E7340C8F3B5
:1011D0000894E108F10801091109C851DC4FE11434
:1011E000F1040105110569F7DF91CF911F910F916E
:1011F000FF90EF900895019739F0880F991F880F9D
:10120000991F02970197F1F70895789484B5826049
:1012100084BD84B5816084BD85B5826085BD85B59A
:10122000816085BDEEE6F0E0808181608083E1E849
:10123000F0E0108280818260808380818160808381
:10124000E0E8F0E0808181608083E1EBF0E0808184
:1012500084608083E0EBF0E0808181608083EAE756
:10126000F0E08081846080838081826080838081DF
:10127000816080838081806880831092C10008959E
:10128000823000F5E82FF0E0EE0FFF1FE457FD4F2E
:1012900071836083882319F08130A1F408C08091A4
:1012A00069008C7F842B80936900E89A089580916F
:1012B0006900440F551F440F551F837F842B809373
:1012C0006900E99A0895823080F4882319F081300A
:1012D00021F402C0E89801C0E998E82FF0E0EE0F91
:1012E000FF1FE457FD4F1182108208951F920F9245
:1012F0000FB60F9211242F933F934F935F936F93E9
:101300007F938F939F93AF93BF93EF93FF938091BE
:101310008C0290918D02892B29F0E0918C02F09142
:101320008D020995FF91EF91BF91AF919F918F91A0
:101330007F916F915F914F913F912F910F900FBED1
:101340000F901F9018951F920F920FB60F921124B5
:101350002F933F934F935F936F937F938F939F93BD
:10136000AF93BF93EF93FF9380918E0290918F0282
:10137000892B29F0E0918E02F0918F020995FF915F
:10138000EF91BF91AF919F918F917F916F915F91FD
:101390004F913F912F910F900FBE0F901F90189576
:1013A000982F8E3008F09E5097708091EE018295B4
:1013B000880F880F807C892B80937C0080917A0035
:1013C000806480937A0080917A0086FDFCCF209122
:1013D000780040917900942F80E030E0282B392B61
:1013E000C90108951F93CF93DF93182FEB0161E09C
:1013F0000E94520A209709F44AC0CF3FD10509F450
:1014000049C0E12FF0E0E255FF4F84918330C1F0F5
:10141000843028F4813051F08230B1F50CC0863030
:1014200019F1873049F1843079F514C084B58068AA
:1014300084BDC7BD33C084B5806284BDC8BD2EC025
:1014400080918000806880938000D0938900C09351
:10145000880024C080918000806280938000D093B7
:101460008B00C0938A001AC08091B000806880937E
:10147000B000C093B30012C08091B000806280932E
:10148000B000C093B4000AC0C038D1051CF4812F4D
:1014900060E002C0812F61E00E94A50ADF91CF9138
:1014A0001F910895482F50E0CA0186569F4FFC01B6
:1014B00024914A575F4FFA0184918823C1F0E82FA5
:1014C000F0E0EE0FFF1FE859FF4FA591B49166239E
:1014D00041F49FB7F8948C91209582238C939FBF01
:1014E00008959FB7F8948C91822B8C939FBF089599
:1014F000833071F0843028F48130A1F0823021F5FE
:1015000014C08630B1F08730D1F08430E9F404C0E3
:10151000809180008F7703C0809180008F7D8093C1
:101520008000089584B58F7702C084B58F7D84BD17
:1015300008958091B0008F778093B00008958091D6
:10154000B0008F7D8093B0000895FF920F931F939A
:10155000F62E482F50E0CA0182559F4FFC0124917E
:10156000CA0186569F4FFC0114914A575F4FFA01FA
:1015700004910023D9F0222319F0822F0E94780AC7
:10158000E02FF0E0EE0FFF1FEE58FF4FA591B49152
:10159000FF2031F49FB7F8948C911095812304C0FB
:1015A0009FB7F8948C91812B8C939FBF1F910F91C3
:1015B000FF9008950F931F93482F50E0CA01825562
:1015C0009F4FFC012491CA0186569F4FFC01049154
:1015D0004A575F4FFA011491112319F420E030E0CB
:1015E00015C0222319F0822F0E94780A812F90E0E3
:1015F000880F991F84589F4FFC01A591B4918C913D
:1016000020E030E0802311F021E030E0C9011F919B
:101610000F9108950E9405090E948D000E94E60026
:10162000FDCF1F920F920FB60F9211242F933F936D
:101630004F938F939F93EF93FF934091C600E09158
:101640001003F091110331969F012F77307031977D
:1016500080911203909113032817390739F0E0574E
:10166000FD4F40833093110320931003FF91EF91BE
:101670009F918F914F913F912F910F900FBE0F909F
:101680001F901895CF93DF93EC019A01AB01E88589
:10169000F985203081EE380780E0480780E0580760
:1016A00009F449C081E090E00A8802C0880F991FC0
:1016B0000A94E2F7808360E079E08DE390E00E9495
:1016C000FB0D2150304040405040CA01B90122E09A
:1016D00030E040E050E00E94FB0DEC81FD81308362
:1016E000EE81FF812083EA85FB85208141E050E087
:1016F000CA010E8402C0880F991F0A94E2F7282BB2
:101700002083EA85FB852081CA010F8402C0880FEF
:10171000991F0A94E2F7282B2083EA85FB858081B4
:10172000088802C0440F551F0A94E2F7842B808377
:10173000DF91CF910895108220E130E0CECFDC011F
:101740001296ED91FC911397E058FF4F2191319142
:1017500080819181281B390B2F773070C901089542
:10176000DC011296ED91FC911397EE57FF4F20810B
:10177000318192918291E058F0408217930719F4D9
:101780002FEF3FEF05C0E20FF31F8081282F30E0DD
:10179000C9010895DC011296ED91FC911397DF01C8
:1017A000AE57BF4F2D913C911197E058FF4F80816C
:1017B0009181E058F0408217930719F42FEF3FEF23
:1017C0000BC0E20FF31F80812F5F3F4F2F773070E8
:1017D0002D933C93282F30E0C9010895DC01129627
:1017E000ED91FC911397EE57FF4F80819181929379
:1017F00082930895FC01A085B18521898C9190E0A8
:10180000022E02C0959587950A94E2F780FFF6CFE5
:101810000484F585E02D6083089589E092E090933B
:1018200015038093140380E992E09093170380934B
:10183000160385EC90E0909319038093180384ECD1
:1018400090E090931B0380931A0380EC90E09093B8
:101850001D0380931C0381EC90E090931F03809301
:101860001E0386EC90E0909321038093200384E094
:101870008093220383E08093230387E080932403F3
:1018800085E08093250381E08093260308950F93DC
:101890001F93CF93DF938C01EB0109C02196D801F0
:1018A000ED91FC910190F081E02DC80109956881CE
:1018B0006623A1F7DF91CF911F910F910895EF92C9
:1018C000FF920F931F93CF93DF938C017B01EA016B
:1018D0000CC0D7016D917D01D801ED91FC91019073
:1018E000F081E02DC80109952197209791F7DF91AC
:1018F000CF911F910F91FF90EF900895DC01ED9132
:10190000FC910280F381E02D099508952F923F927A
:101910004F925F926F927F928F929F92AF92BF92FF
:10192000CF92DF92EF92FF920F931F93DF93CF93AB
:10193000CDB7DEB7A0970FB6F894DEBF0FBECDBF10
:101940001C016A017B01411551056105710549F4CE
:1019500040E350E060E070E020E030E00E94410DA4
:1019600056C0882499245401422E55246624772495
:1019700001E010E00C0F1D1F080D191DC701B60175
:10198000A30192010E94D90DF80160830894811C83
:10199000911CA11CB11CC701B601A30192010E94B8
:1019A000D90DC901DA016C017D01C114D104E10432
:1019B000F104F1F681E0E82EF12CEC0EFD1EE80CAE
:1019C000F91C3E010894611C711CD501C4010197EA
:1019D000A109B1096C01C818D90816C0F601EE0DAD
:1019E000FF1D40814A3010F4405D01C0495C55271D
:1019F00047FD5095652F752FC10120E030E00E9412
:101A0000410D0894E108F1086E147F0439F7A0969F
:101A10000FB6F894DEBF0FBECDBFCF91DF911F91FF
:101A20000F91FF90EF90DF90CF90BF90AF909F907D
:101A30008F907F906F905F904F903F902F90089580
:101A4000DC012115310541F4ED91FC910190F0810B
:101A5000E02D642F099508950E94860C0895EF9259
:101A6000FF920F931F939A01E62EFF2400E010E0EF
:101A7000B801A7010E94200D1F910F91FF90EF90D8
:101A80000895EF92FF920F931F93CF93DF93EC0192
:101A90007A018B012115310541F4E881F98101902A
:101AA000F081E02D642F09951BC02A303105B1F477
:101AB00077FF10C04DE250E060E070E020E030E0E1
:101AC0000E94410D10950095F094E094E11CF11CEA
:101AD000011D111DCE01B801A7012AE00E94860C4C
:101AE000DF91CF911F910F91FF90EF900895EF92AA
:101AF000FF920F931F937B019A010027F7FC00953B
:101B0000102FB801A7010E94410D1F910F91FF9066
:101B1000EF9008950F931F938C014DE050E060E02B
:101B200070E020E030E00E94410DC8014AE050E042
:101B300060E070E020E030E00E94410D1F910F91C5
:101B40000895CF92DF92EF92FF920F931F938C0133
:101B50009A016B01EE24FF24B701A6010E94200D1B
:101B6000C8010E948A0D1F910F91FF90EF90DF90A6
:101B7000CF9008950F931F938C010E947E0CC80193
:101B80000E948A0D1F910F910895AA1BBB1B51E162
:101B900007C0AA1FBB1FA617B70710F0A61BB70BDD
:101BA000881F991F5A95A9F780959095BC01CD0182
:101BB0000895A1E21A2EAA1BBB1BFD010DC0AA1F8E
:101BC000BB1FEE1FFF1FA217B307E407F50720F0A6
:101BD000A21BB30BE40BF50B661F771F881F991F21
:101BE0001A9469F760957095809590959B01AC016A
:101BF000BD01CF01089597FB092E05260ED057FD94
:101C000004D0D7DF0AD0001C38F4509540953095A9
:101C100021953F4F4F4F5F4F0895F6F79095809570
:101C2000709561957F4F8F4F9F4F0895EE0FFF1F67
:0C1C30000590F491E02D0994F894FFCF8A
:101C3C00474F5420504B543A0020002A20476F74D1
:101C4C0020525332333220636861723A20002027CD
:101C5C0000270020286E6F6E207072696E746162AE
:101C6C006C6529002A20506F77657220737461743B
:101C7C0075733A20002A2052756E6E696E67204289
:101C8C007574746F6E20302064656D6F2E002A2081
:101C9C0052756E6E696E6720427574746F6E20316A
:101CAC002064656D6F2E002A2052756E6E696E670A
:101CBC0020427574746F6E20322064656D6F2E0037
:101CCC002A2052756E6E696E6720427574746F6E41
:101CDC0020332064656D6F2E002A204F6E65576986
:101CEC00726520416464723A00002A20496E69745E
:101CFC006974616C697A696E672E2E2E002A2049F0
:101D0C006E697420646F6E652E20456E7465726901
:101D1C006E67206D61696E206C6F6F702E00010E06
:101D2C00000F00100011001200080004000700034F
:101D3C00000500060000000000FA0B470C5F0C9F2A
:081D4C000BCA0BB00BEE0B00FB
:00000001FF
